:020000041000EA
:1000000000B5324B212058609868022188439860DF
:10001000D860186158612E4B002199600221596106
:100020000121F02299502B49196001219960352056
:1000300000F044F80222904214D00621196600F024
:1000400034F8196E01211966002018661A6600F04E
:100050002CF8196E196E196E052000F02FF8012189
:100060000842F9D1002199601B49196000215960AB
:100070001A491B48016001219960EB211966A021F2
:10008000196600F012F800219960164914480160C1
:100090000121996001BC002800D000471248134993
:1000A000086003C880F30888084703B5996A0420EC
:1000B0000142FBD001200142F8D103BD02B5186610
:1000C0001866FFF7F2FF186E186E02BD00000240BE
:1000D000000000180000070000035F00212200005C
:1000E000F4000018222000A00001001008ED00E03C
:1000F00000000000000000000000000074B24E7A12
:1001000000200420F7010010CB010010CD010010E9
:10011000C9010010C9010010C9010010C901001077
:10012000C9010010C9010010C9010010CF01001061
:10013000C9010010C9010010D1010010D301001045
:10014000C1010010C1010010C1010010C101001067
:10015000C1010010C1010010C1010010C101001057
:10016000C1010010C1010010C1010010C101001047
:10017000C1010010C1010010C1010010C101001037
:10018000C1010010C1010010C1010010C101001027
:10019000C1010010C1010010C1010010C101001017
:1001A000C1010010C1010010C1010010C101001007
:1001B000C1010010C1010010C1010010C1010010F7
:1001C000EFF30580103800BE00BE00BE00BE00BECA
:1001D00000BE00BEF2EB88716406001084060010B9
:1001E0003802001090A31AE721482249086006C887
:1001F00081F30888104720480068002801D01C4877
:10020000F3E70DA40ECC002902D000F012F8F9E7B4
:100210001A491B4A002000E001C19142FCD1194952
:100220008847194988471949884700BEFDE701C931
:1002300001C29A42FBD3704784060010C000002020
:10024000C02A012084300110C02A0120FC74012042
:10025000C07A01100000042000000420C07A0110C0
:10026000001004200010042000000000704700006F
:100270000000000008ED00E0000000D0FC74012048
:100280006CC50120656C0020711D00205D6C002094
:100290001FAA0010B0AB0C00FFFF010013AA001052
:1002A000B0AB1800FF1019011030DC050000C206C9
:1002B00004C60601DE060400000100000000000084
:1002C000EFA90010B0B0A800FF100D01040206084D
:1002D0000101000000000000D7A90010AA03B1002E
:1002E000FF10210113125A000078047C03920120B0
:1002F000C20100BC010E00000200017D00000000F0
:10030000805D0110ABA90010B0B0AA00FFFF01088A
:100310000E041C00180E000097A90010B0B0AA002F
:10032000FFFF01080E041C00180E000083A9001036
:1003300007B19701B0B003ABFFFF010C2E04000022
:100340003C044A00460E000067A90010B0AB06004E
:10035000FF101D01152E22320182012CAE0100B6C4
:1003600001040000CC0102AE010001000000000009
:100370003FA90010AB08B100FFFF010033A9001036
:10038000A803B100FFFF01080A04100016040000D2
:100390001FA90010B0A90600FFFF010C0C0200000D
:1003A00016041C002204000007A90010B0AB0600D0
:1003B000FFFF010E1A048401002A04740080010466
:0203C00000003B
:1003C40030A20010B0B0A88060A2001001000000AC
:1003D400BCA20010AB07B180E6A20010B0AB06804F
:1003E40050A30010AB08B1806AA300100100000004
:1003F40094A30010B0AB0480C0A30010010000005F
:1004040040A40010AB08B1805CA4001001000000FF
:100414005CA50010B0B0AA8098A5001070FEFF7F04
:1004240088A6001001000000FEA60010AB07B180F2
:10043400A8A70010B0B0A880DEA70010B0B0AA80B2
:10044400F4A70010AA03B1804CA80010A80FB18033
:100454005AA8001044FEFF7FBAAB001060FEFF7F75
:10046400C4AB001001000000CCAB0010B0B0A880F9
:10047400DCAB001001000000ECAB0010B0B0A880B1
:1004840014AC00100100000058AC0010B0B0AA80F9
:1004940084AC0010B0B0A880F0AC001038FEFF7F30
:1004A400D0AD0010B0B0A880E8AD001054FEFF7FBE
:1004B40010AE001060FEFF7F38AE00106CFEFF7FB0
:1004C40090AE0010AB1C9780D8AE00100100000065
:1004D40038AF0010AB07B180B8AF001001000000C6
:1004E400D4EB0010AB07B18078EC001001000000E1
:1004F40038ED001050FEFF7F18EE001001000000E0
:100504004AEE001068FEFF7F90EE0010B0B0AA80A3
:10051400D8EE00100100000088EF0010AB07B18096
:10052400C8EF0010B0B0AA80E8EF00104CFEFF7FC7
:1005340004F00010B0B0A88024F00010A803B1802B
:1005440030F000100100000060F00010B0B0AA808C
:10055400B8F0001001000000E0F00010B0B0A88076
:10056400EAF0001001000000F4F00010B0B0A88020
:1005740028F10010010000005AF10010A907B18011
:1005840088F100100100000050F2001000FEFF7F0F
:100594007AF200100100000098F2001008FEFF7FBC
:1005A4001CF300100100000048F40010B0A90480FE
:1005B400D4F40010B0B0A88016F5001001000000BB
:1005C4001CF50010B0B0AA8050F50010AB7AB280D0
:1005D400FCF50010AB3F3A8042F60010B0B0A880A2
:1005E4004EF60010B0B0AA8088F60010B0B0A88013
:1005F4009CF600100100000096F60010B0B0A88030
:100604009EF600100100000034F70010AB10B28019
:1006140098F70010B0AB0A80CCF90010B0B0A880F5
:10062400E2F90010AB3F048016FC0010010000004A
:1006340086FD0010A80FB18094FD0010B0B0A88012
:1006440094FD0010B0AB0680FEFF0010A80FB1802F
:100654001A000110B0B0A8803000011001000000A1
:10066400605101206C5101207851012084510120F6
:10067400905101209C510120A85101209054012047
:10068400F8B5C046044B10B5002B03D00349044809
:1006940000E000BF10BDC0460000000004C40120FB
:1006A400C02A0120A4230821134A70B51348D1504D
:1006B400134A066814681568A31BFF24A343711B1F
:1006C400CE1806600F481B0A0568190469400E0C11
:1006D4000D4935040D4E0D603568536852685B1B37
:1006E400A343AC1AE518356000681E02330C43407E
:1006F4001A04140C0C6070BD00000540CCB5012038
:10070400486E01204800054048100540D0B501203E
:10071400F0B5DE4657464E464546FA20E0B5ADB044
:10072400400006AF02F00EFF0326BC46AF4900248A
:100734008A460CAB66449B46AD4AAE4DAE48AF4BC1
:10074400B146AF4E0592049503900293AD4806F06E
:10075400DFFF831CFAD00A2800D1F0E007237F22B0
:100764001D00111B0D400B427CD00D2800D1E6E08A
:100774007E2C00DDD9E05A461055A248671C06F0CD
:10078400C7FF831C00D1FDE00A2800D1E2E03C0051
:10079400012D67D0022D57D0032D45D0042D33D021
:1007A400052D21D0062D0FD00D2800D1C7E05946C4
:1007B40008559448013706F0ABFF831C00D1E1E0F3
:1007C4000A2800D1C6E03C000D2800D1B7E05B4602
:1007D40018558C48013706F09BFF831C00D1D1E0EB
:1007E4000A2800D1B6E03C000D2800D1A7E05D4600
:1007F40028558448013706F08BFF831C00D1C1E0E3
:100804000A2800D1A6E03C000D2800D197E05A4602
:1008140010557C48013706F07BFF831C00D1B1E002
:100824000A2800D196E03C000D2800D187E0594603
:1008340008557448013706F06BFF831C00D1A1E012
:100844000A2800D186E03C000D2878D001375B46A9
:1008540018556C4806F05CFF831C00D192E00A280E
:1008640078D03C000D286AD07E2C5EDC5D4628558D
:100874006448671C06F04CFF831C00D182E00A2800
:1008840068D03D003C000D2859D05A4650555D486B
:10089400013706F03DFF831C74D00A285AD03C006F
:1008A4000D284CD0594608555648013706F030FFFC
:1008B400831C67D00A284DD0AC1C0D283FD05B4662
:1008C40018555048EF1C06F023FF831C5AD00A2801
:1008D40040D03C000D2832D05A46105549482F1DAF
:1008E40006F016FF831C4DD00A2833D03C000D2897
:1008F40025D05946085543486F1D06F009FF831C4F
:1009040040D00A2826D03C000D2818D05B46185544
:100914003C48013706F0FCFE831C33D00A2819D06A
:10092400AC1D0D280BD0EF1D91E7364806F0F0FE04
:10093400831C00D10AE70A280DD00D28F5D1002C1C
:1009440009D1304806F0E4FE831C19D00A28F8D0F7
:10095400002403E73C00594600220A5554462A4D18
:100964000B682768AB420FD0284DAB4200D19DE005
:10097400029806F0F9FE234806F0CAFE831CE5D16E
:100984000024E3E63C00E1E60022087900249446D2
:100994000DA9002825D03038C5B2092D00D9B2E000
:1009A40000230200A0461800840020180C004B7895
:1009B400450050191A00303AD5B20131092DF3D946
:1009C40025004446112800D999E0494601340855C8
:1009D4002C2B1DD06546002B21D0122C1FD0002CAF
:1009E4001DD1059806F0C0FEABE7C04674B50120E2
:1009F400B0420120C8420120D8420120E84201202F
:100A0400E04201201027000053455420474554007C
:100A1400A878A91C002801D0122CBCD16546F62365
:100A240001209A01B9589046411A8C464B00634400
:100A3400DA009446354800916044019207A92200E7
:100A4400381804F0BDF9324A019B9446F918614400
:100A54000C60BFF35F8F0121444600982D4B385141
:100A6400F9543C590398A04606F0FCFE284A63005A
:100A740043449046D9007C18A044244C4046A446E4
:100A8400036861447C184746002B03DC0AE02C20F1
:100A940006F05CFE615D300006F0E4FE3968013565
:100AA4008D42F4DB0A2006F051FE4AE7F62290015B
:100AB4003B580398984606F0D5FE4146144A4D002B
:100AC40045449046E8003B189844104D4146AC46D6
:100AD4000B6860443D1800244746002B03DCE1E723
:100AE4002C2006F033FE295D300006F0BBFE38688A
:100AF40001348442F4DB0A2006F028FE21E704983E
:100B040006F032FE1DE7654669E7C046843D0000F5
:100B1400983D0000B43D0000F0B557464E464546AA
:100B2400DE46F4230400E0B5C75A0233E15A38B272
:100B34000AB287180137504E8BB07D100595A35D1E
:100B4400002B0FD000214D48215038382258550031
:100B5400AB184B4DD800AC46221862441078494B70
:100B6400E054A1551C26FF36A35D5E425E41069308
:100B7400F6B2002B3DD14449625C002A39D1F620FB
:100B84003E4A83019046E158A0584D006B183F4AF5
:100B9400D9006518AB181968013003F061F94046B3
:100BA40021506918364D374BA94649440A783649CD
:100BB400E25466548B2675009346625D002A26D063
:100BC400DC233349E0588A465044860032181033F7
:100BD400E5585300181841010A1AD6177305580D21
:100BE4008118802213019C462DB2CE1265447619D9
:100BF40016E0E925605D002839D1224A2249A55C26
:100C040066548B26AB467500625D002AD8D18025D8
:100C1400DC32A0582A019046C10F0E1876104644C3
:100C2400F3431C49D81706408E4200DD0E005621BE
:100C34003000FF3103F014F98A0056219146300048
:100C4400FF3103F00DF94B46134D5E59C64013486E
:100C5400864208DD06005946112900D9D4E3104A1A
:100C64008D0053599F460F2EF5DA0F26F3E7EB2339
:100C7400E15C0029C1D182E7B43D0000B83D000029
:100C8400843D00007C3D0000BC3D0000983D000018
:100C940000F8FFFFFB0F0000E44B0120BC0500003F
:100CA400844B012004218A4602390091B146B046A2
:100CB4000921B0008019000203F0D2F842460099DD
:100CC40035020600100203F0CBF84B46514680462D
:100CD400180203F0C5F8DD4962589146002A00D194
:100CE40078E3FF21AD1A6B0080221D124D44294088
:100CF400894653005A1A0792D54AA358002B03D0A9
:100D0400F61A71000A12D618D24BE158002905D000
:100D14004246531A5A00131298468844CE496258E0
:100D2400002A03D0801A430019128818C74AC84BF6
:100D3400A5504246C749E6506250FF21C64B0A00FF
:100D4400E050434632400B402D120140AA4608921F
:100D5400049309910A2D01DA0A218A46F022D3006C
:100D64009A4501DBBD4DAA465246BD493612625032
:100D74000A2E00DA0A26F023DD00AE4200DBB74E6D
:100D84004246B8491312984666500A2B01DA0A25DE
:100D9400A846F021CA00904501DBB04B9846414675
:100DA400B14D615105120A2D00DA0A25F020C20066
:100DB400954200DBA94DE021AC4BE5506058103161
:100DC400625813B21B18D9438022C817034051013B
:100DD4008B4200DBA64BA748A549584303F040F8D3
:100DE400FA22D1018C46E82260440090FB1078116D
:100DF4003F11029301900397A15C002900D1DFE227
:100E0400EA23E05C002800D0DAE2FA238020D9004B
:100E140002019948994B27587B43994FBC46994FF7
:100E24006344BC4623501801030D0298634484466E
:100E34005A43D3129C44019B67469C461213029763
:100E4400039F94446046BC46F72394446246019051
:100E5400980103922150210052468B4F4D31E059A5
:100E6400FF31831A03D5F027FA00924653445A1EE1
:100E740001D57A4FDA195B005F5E079B52007B4312
:100E84001F00535E4A465A43BF18804A3F12A35874
:100E940007979946FB1A009F7B4380273F02BC4675
:100EA40063441B144B44A350794A1700A25892463A
:100EB4009A1A12125244E2519B1A029A470091461E
:100EC400744A4B44934200DA130080221201934285
:100ED40000DB714B7B52F0210130C90002F0C0FFEE
:100EE40069486E4B21506E4AE058A118861B03D501
:100EF400F027FA0094466644731E01D5574BF31845
:100F040080277600725E7E00089F5B00F61B5643C6
:100F14005B5E7B43F2181612624AA758BA46F31B6B
:100F2400009F7B4380273F02B9464B441B14534424
:100F3400A3505D4A1700A25894469A1A12126244AA
:100F4400E2519B1A019A47009246524A53449342F3
:100F540000DA130080221201934200DB4E4B7B52D5
:100F6400F0210130C90002F07BFF47464B484F4B4C
:100F740021504F4AE058A118C31B03D5F022D700D3
:100F8400B84643445A1E01D5344A9A185B005B5E46
:100F9400802799467B00049F5200DB1B4F467B430E
:100FA400525E049F7A439B181A1292465346414A52
:100FB400A758BC46DB1B009F7B4380273F02B846F3
:100FC40043441B146344A3503B4A1700A258914660
:100FD4009A1A12124A44E2519B1A019A4700944603
:100FE4002C4A6344934200DA130080221201934294
:100FF40000DB294B7B52F0210130C90002F030FFA5
:101004002A482E4B21502E4AE058A118451B03D5DF
:10101400F027FA00904645446B1E01D50F4BEB18A0
:1010240080276D006A5E7D00099F5B00ED1B5543C0
:101034005B5E7B43EA181512224AA758BC46EB1B99
:10104400009F5F433B0080273EE0C046D83D000040
:10105400DC3D0000E03D0000E43D00007F070000AF
:101064005C3D0000603D0000643D0000683D000000
:10107400FF0F000014820000C43D00006D4EC64105
:101084003930000000F8FFFF4C3D00006C3D0000CB
:10109400C83D000001F8FFFFFF070000503D0000BD
:1010A4004C100000703D0000CC3D0000543D000099
:1010B4004C1F0000743D0000D03D0000583D00006E
:1010C4004C2E0000783D00003F02B9464B441B14EF
:1010D4006344A350D94A1700A25890469A1A121290
:1010E4004244E2519B1A039A47009446D44A63440B
:1010F400934200DA130080221201934200DBD14BA9
:101104007B52F0210130C90002F0AAFECE48069AB3
:101114002150022A00D161E1079FF3195344591960
:101124000323BE1B5644751BC817EF1718403B40DA
:101134004218591992108810D826C44DA759059BF6
:10114400E91B80257A434B435200D1181E002B0122
:10115400994649440A13BA498A4200DA0A008025AA
:101164002B019A4200DBB74A47437800871980264F
:10117400D2213501A8466252B14A47443B139342F7
:1011840000DA130080210801834200DBAD4BD42731
:10119400E3535C46102C4FD8AD4A0123E240594634
:1011A400AC4F1A403C6850426040AB4A0604350CD0
:1011B40015600E2900D925E1A8488024C840A84D0F
:1011C4000340AC46013B6602334063445E46A54C93
:1011D400A04AF4401168A04F4B401B0C180438601F
:1011E400E30700D401E1A04DA04F2A68D1430B04CA
:1011F400180C386058469E4B0127C3409A4E3B401A
:1012040035685C426C40994B210C0A041A600E2824
:1012140000D9F1E0974A5946C24097483A400468D9
:10122400534263401E04954B954ACB40350C1560E0
:101234001F421FD08A4F1EE0864E874835682A0415
:10124400110C016033685E461F0C3C040460112ECF
:1012540000D1E2E0844D854F2A681104080C3860FF
:101264002B68854D1C0C26043E602A68844F1104AB
:10127400080C386000278048814A04687C40260CAA
:10128400350415600BB0F0BCBB46B246A946A04677
:10129400F0BD03239A46013BB146B04603217000DA
:1012A400009308E50F2271009246F5000C3A884637
:1012B400A9460521B0000092FDE4B500A81972000A
:1012C4009046814609239A46063B06210093F2E4A0
:1012D400B00080190321820090468A4673002131B0
:1012E4000091994606218044E5E402257100AA464E
:1012F400013588468819B14604210095DBE4B00025
:1013040072009046814609239A46063B05210093C4
:10131400D1E4710088468946B0000525AA46023DFD
:1013240005210095C7E4022372009A4601339046D2
:10133400B1460921F0000093BDE402257100AA46DC
:1013440001358846B1460521B0000095B3E4022377
:10135400B0009A46720001339046B14606218019C6
:101364000093A8E47500A846B146B000C144D4E790
:10137400B0007300811998468946C4E7B50072002D
:101384009046A946A8199DE704218A46023900918E
:10139400B146B046032170008DE4042372009A46DE
:1013A400023BB146B04604219019009383E404251E
:1013B400AA46023DB146B0460F21F00000957AE4FA
:1013C400F727BA01A2580A2A00DC44E5FA2151435E
:1013D40009121EE58023590007918DE4079B9A4664
:1013E400DA0F524452101000A6E61F4C1F4A26681A
:1013F4003504290C1160FDE61F4F214D3C68A6B24F
:101404002E6037E70023E1E604218A460139009182
:10141400B146B046300002214DE4134C134A236810
:10142400DE43B5B215602168134C080C070417603D
:101434002368134D9EB20A4F2E601CE7D43D000072
:1014440001F8FFFFFF070000583D0000FF0F0000F8
:1014540041110100700005407010054082420000F7
:101464000000FFFF048B0200840005408410054047
:1014740088A40100105C0000980005406020020070
:101484009810054010B5024B186811F0F1FE10BD1C
:1014940078B5012070B5D02501220021072001F084
:1014A40041F801220021062001F03CF8012200212C
:1014B40005202D0601F036F80120002102F030F855
:1014C4006A686C686B6860069B06C10FD80F8C0055
:1014D40012060101D30F072000220C4301211C43F3
:1014E40001F020F800220121062001F01BF800225F
:1014F4000121052001F016F80120002102F010F866
:1015040068686A6801066D68CB0F52065800D10FEF
:1015140064B2AD06CB000443E80F1C434201002132
:1015240007201443012200F0FDFF012200210620C0
:1015340000F0F8FF64B201220021052000F0F2FF60
:101544002A2C05D0302C03D0FF200C2C00D070BDE9
:10155400E0B2FCE7F0B54E46DE465746454603008A
:101564008C46E0B563441C7985B00200A146019025
:101574000291002C00D132E290468900039161442B
:101584000F01B84443460C20185603F00FFBDF4903
:1015940003F0D5FA4546041CA86803F007FB211C98
:1015A400051C201C03F0CBFA211C061C281C03F08C
:1015B400C6FA4946071C012900D1A9E14246142371
:1015C400D05603F0F3FAD14903F0B9FA8246404603
:1015D400006903F0EBFA51468346201C03F098FAA5
:1015E4005946041C281C03F093FA5146051C504626
:1015F40003F0A5FA011C301C03F08AFA5946061CB4
:10160400504603F09CFA011C381C03F081FA494649
:10161400071C022900D17BE142461C23D05603F06B
:10162400C5FABA4903F08BFA82464046806903F052
:10163400BDFA51468346201C03F06AFA5946041C3D
:10164400281C03F065FA5146051C504603F077FA4E
:10165400011C301C03F05CFA5946061C504603F08A
:101664006EFA011C381C03F053FA4946071C03297F
:1016740000D14DE1434600222433985603F096FAF4
:10168400A24903F05CFA82464046006A03F08EFAEF
:1016940051468346201C03F03BFA5946041C281C7F
:1016A40003F036FA5146051C504603F048FA011C73
:1016B400301C03F02DFA5946061C504603F03FFA3D
:1016C400011C381C03F024FA4946071C042900D1E4
:1016D4001EE1434600222C33985603F067FA8B49E7
:1016E40003F02DFA82464046806A03F05FFA5146C1
:1016F4008346201C03F00CFA5946041C281C03F0F2
:1017040007FA5146051C504603F019FA011C301C17
:1017140003F0FEF95946061C504603F010FA011C6A
:10172400381C03F0F5F94946071C052900D1EFE000
:10173400434600223433985603F038FA734903F0D1
:10174400FEF982464046006B03F030FA5146834668
:10175400201C03F0DDF95946041C281C03F0D8F9B9
:101764005146051C504603F0EAF9011C301C03F0F5
:10177400CFF95946061C504603F0E1F9011C381C08
:1017840003F0C6F94946071C062900D1C0E04346C8
:1017940000223C33985603F009FA5C4903F0CFF970
:1017A40082464046806B03F001FA51468346201C72
:1017B40003F0AEF95946041C281C03F0A9F951465C
:1017C400051C504603F0BBF9011C301C03F0A0F9C2
:1017D4005946061C504603F0B2F9011C381C03F0AC
:1017E40097F94946071C072900D191E04346002296
:1017F4004433985603F0DAF9444903F0A0F98246D9
:101804004046006C03F0D2F951468346201C03F095
:101814007FF95946041C281C03F07AF95146051C2B
:10182400504603F08CF9011C301C03F071F9594641
:10183400061C504603F083F9011C381C03F068F9B8
:101844004946071C082963D0434600224C33985666
:1018540003F0ACF92D4903F072F982464046806CDE
:1018640003F0A4F951468046201C03F051F9414687
:10187400041C281C03F04CF95146051C504603F087
:101884005EF9011C301C03F043F94146061C504626
:1018940003F055F9011C381C03F03AF94946071CBA
:1018A400092935D0029A019994468B46039B6344D7
:1018B4001801834454235A46D05603F077F9134948
:1018C40003F03DF982465846006D03F06FF9514626
:1018D4008046201C03F01CF94146041C281C03F01C
:1018E40017F95146051C504603F029F9011C301C18
:1018F40003F00EF94146061C504603F020F9011C82
:10190400381C03F005F9071C02E0C046CDCCCC3DE1
:10191400484603F04BF9311C814603F010F9211CB1
:10192400061C201C03F00BF9011C301C03F0EDF81D
:101934000021061C03F032F9002842D1391C484624
:1019440003F0FDF8211C071C281C03F0F8F8011C07
:10195400381C03F0DAF8311C03F0DDF8211C061CF6
:1019640003F0EDF8011C281C03F0CFF8494603F0FE
:10197400D2F81D49051C301C03F0E1F8FC22910546
:1019840003F0C6F803F034F98146FC208105281CD5
:1019940003F0BEF803F02CF90199029C8C46230154
:1019A40063441F00A8373E607D604E46B0255E51FB
:1019B4000435585105B0F0BCBB46B246A946A04612
:1019C400F0BD4946281C03F0A6F8FC218905051C36
:1019D40003F09EF803F00CF900239946DCE700209D
:1019E4000026024DD8E7C046ABAAAA3F0000C07F3C
:1019F400F0B5DE46454657464E468346E0B5EC25EF
:101A04000024030014225E469FB05E4905735E48BD
:101A1400196198601C751A775C4B5F46B3615C264C
:101A2400BD55B86564203C5439666C217A54BB6654
:101A3400FF2704AB9C460F25B846554E65441C74DD
:101A44002F700123009408AA1C39300009F020F8F3
:101A540001232A0050210094300009F025F8434660
:101A64002F7804A92B70FE3B0B7408AA5021009414
:101A7400300009F00DF801232A00009450213000B1
:101A840009F012F82C78434B3A0222439A4200D0D0
:101A9400A8E104AA924600210E24FF2308A8814647
:101AA40004905846544488469A4600270590424676
:101AB40051462A70217001232A00502130000097DA
:101AC40008F0E6FF0123220050213000009708F0BF
:101AD400EBFF484623784A460121037053464144AC
:101AE4000132237029708B46012350210392300068
:101AF4002A00009708F0CCFF012322005021300077
:101B0400009708F0D1FF494622785B464A70524656
:101B1400581C2270287001232A005021300000979D
:101B240008F0B6FF0123220050213000009708F08E
:101B3400BBFF404652462178039B03305970227004
:101B4400287001232A0050213000009708F0A0FFDC
:101B54000123220050213000009708F0A5FF042043
:101B64008446E0444B4642462178E144D970582AE1
:101B74009DD1059E084B08ACB246049D1E00074F3C
:101B8400563435E050FC0300344E050040A90200F1
:101B9400186F0120D1070000FFFF00002110000092
:101BA4007600B3B218B200282EDB5A0096B231B2D6
:101BB40000292FDB700082B213B2002B30DB5100FE
:101BC40088B206B2002E31DB430098B202B2002A7A
:101BD40032DB4600B3B219B2002933DB5A0096B2A5
:101BE40030B2002834DB710001358EB2AC4235D0FE
:101BF40029780802464032B2002AD1DA51007940ED
:101C04008BB218B20028D0DA43007B409EB231B2C6
:101C14000029CFDA4E007E40B2B213B2002BCEDAE6
:101C24005A007A4090B206B2002ECDDA71007940A3
:101C340088B202B2002ACCDA5000784083B219B2DA
:101C44000029CBDA4B007B409EB230B20028CADABE
:101C540042007A40013596B2AC42C9D110235624D1
:101C640004AFF818015B35004ABA96B2AE4200D010
:101C7400B8E004232420554653440027984681465F
:101C840009AC083511AE41462378CB55002B00D161
:101C94009AE0E278A17810040A0610436179227967
:101CA40008431102627808432A712860012B00D18D
:101CB4008AE0207AE179020408060243A17A607A74
:101CC4000A430102A0790A432873AA60022B7BD03D
:101CD400227B617B10060A041043E17BA27B08434C
:101CE4001102E27A08432A752861032B6CD0607CC8
:101CF400A17C020608040243217DE07C0A43010220
:101D0400207C0A432877AA61042B5DD0E17DA27D63
:101D140008041206617E0243207E0A4301024846FB
:101D24000A43617D29542A62052B4DD0217FE27E2E
:101D340008041206A17F0243607F0A4301020A439A
:101D44002C21A07E6854AA62062B3DD0707832788C
:101D540001041206F0780A43B178024308023421E0
:101D64000243E07F68542A63072B2DD0B07972793F
:101D740001041206307A0A43F179024308023C2135
:101D8400024330796854AA63082B1DD0F07AB27AE2
:101D940001041206707B0A43317B0243080244218A
:101DA4000243707A68542A64092B0DD0327CF37B89
:101DB4001104727C1806084311024C22B37C1843A8
:101DC400B37B0843AB54A86439005046FFF7C2FB09
:101DD400781C2934012750352936022800D052E7CF
:101DE400002000E001201FB0F0BCBB46B246A9466B
:101DF400A046F0BDF0B5DE464E4657464546E0B532
:101E04008D4B060085B0102203600021D83002F00B
:101E1400D1FF0020E822B0520232B052300000213B
:101E2400E23AEC3002F0C6FF8021F4220024F827C5
:101E340030000D01B5520232B5520021F455DE3A9C
:101E4400FC3002F0B7FF3000153006220021FF30CD
:101E540002F0B0FFA5221E2008215300E022774D96
:101E6400774FFF30F454345429603B68D0017549EE
:101E740003408D250B60162318221A206F00F45599
:101E8400FF33063FF455FF32F4540133F4546E49E2
:101E9400B454FF300132B454345400240A270125C9
:101EA40089466A4B039602930094042138007C1CF3
:101EB40000F01EFB0421200000F01AFB2A00494612
:101EC4003A405042414063087E0801911F2F5BD87D
:101ED40007275F493E408846B2009619B2005D4923
:101EE400904446468846BB4600275B495B488A4681
:101EF400101890440760376046469244376049465C
:101F04005646316010264660B2460560202C00D14A
:101F1400ECE1594619408B005E18B0004F4EB446B0
:101F24008444664637604A4EB34683445E4637600F
:101F3400484EB34683445E463760474F4E46BB46E1
:101F44005844066057466046476005604046444F23
:101F54005918B8468B0042494F468A46066801988C
:101F64004244304010603B4A2C409E183068009A2E
:101F740064427C4020405344023218600092062A96
:101F840070D0029EB75C90E7032232400826B04628
:101F9400324997008C46B818904400228700674461
:101FA4009836BA5146469346B2009119284E880095
:101FB400B2468244594656463160264EB44684445D
:101FC4005E4661460E6024494E468B465844066080
:101FD4001021A420395090317D50032018408300F3
:101FE4001F1801001D4800238446BE00B444674600
:101FF400A020174E9A46B34608313B508B005F1819
:10200400BF00BB445E4650463060124E4244B34665
:10201400BB445646584606600F484E46824610203A
:1020240057443E600600A4276046C651094F9036C7
:1020340092008551D0198AE7D44B012000F0044066
:1020440000C0044000D00440FFFF000038510120CC
:10205400080005400C000540100005400000054044
:102064000C100540039E08F0AFF91F211B2000F05F
:102074003FFA002200211B2000F054FA00211B200B
:1020840000F064FA1F211A2000F032FA0022002125
:102094001A2000F047FA00211A2000F057FA1F21F5
:1020A4001C2000F025FA002200211C2000F03AFA3E
:1020B40000211C2000F04AFA1F211D2000F018FA0C
:1020C400002200211D2000F02DFA00211D2000F027
:1020D4003DFA182000F04EFA192000F04BFA802146
:1020E400D02380201C068A044704676208206262A9
:1020F40000F040FA80238027580060626061092064
:1021040000F038FAB90061620220616100F032FA2D
:1021140004220121A2620220002200F003FA03201B
:1021240000F028FA0823734FA36200220121032040
:1021340000F0F8F93800704908F0AEFA02216F4A4D
:10214400786811600F223F686D4B084057408946FC
:10215400C0326C493A400A6018600121122000F034
:10216400C7F90121132000F0C3F90121152000F063
:10217400BFF90421172000F0BBF90421162000F058
:10218400B7F91027002280235F486049C263426484
:102194008264C1640764C563C26342648264C164C7
:1021A4000764C5635A48D904026851400A0C802167
:1021B4001304584A13600068CB0043401804010C10
:1021C4001160072000F0D6F9062000F0D3F90520AD
:1021D40000F0D0F98022A262403AA262203AA262C0
:1021E400142000F0C7F900220021142000F09AF90D
:1021F400042000F0BFF967624749A761474808F027
:102204001FFC0321102000F073F90321112000F0BA
:102214006FF9002000F0AEF96562012000F0AAF920
:102224004B4630006362FFF735F9D0243055300057
:10223400FFF7DEFB4540012028408F2569007054DC
:1022440056398B46B344584605F0E6FE5A46344C9C
:10225400344D043710685168334A344B02F038FC6B
:10226400314A324B0019694102F032FC2E4A2F4B9D
:102274000019694102F02CFC2B4A2C4B00196941CE
:1022840002F026FC284A294B0019694102F020FC7F
:10229400254A264B0019694102F01AFC224A234BB5
:1022A4000019694102F014FC1F4A204B00196941CE
:1022B40002F00EFC1C4A1D4B0019694102F008FC97
:1022C400194A00196941194B02F002FC0A3F00192E
:1022D4006941002FC0D15F4638607960300005B095
:1022E400F0BCBB46B246A946A046F0BD5A46D84605
:1022F400153272E600C00340286BEE0004F0034080
:1023040004E0034000D0034000000540FF07000044
:102314004800054048100540A0860100186F0120C0
:102324004F8167F77E7B05142D7F954C2DF4515812
:10233400F0B587B005F0E8F94C4D280008F03AFCF8
:102344004B4C002810D18D2601274A4D71004A4874
:1023540067542C6008F002FC48480460200010F028
:102364008FFE002007B0F0BD2000FFF743FD0020E2
:102374004349444B605064212360434A434B444ED9
:10238400A050E150434A444BA0513231434EA15036
:10239400E0503231424BA151424A434EE05404339F
:1023A400A050A051E050414A414E424BA054A0518C
:1023B4000022E6180023404FC831E0513F4F3260FD
:1023C4007360E1513E4F9039E0513E4FFF39E15582
:1023D4000437E0513C493D483D4F21503D49E01907
:1023E400661869463C4F02604360E01932607360CE
:1023F40002604360394B6A46C1CBC1C11E680E609E
:1024040012269F88364B8F806E44977810789F7081
:102414009F76577951785F715F771F00187018762F
:10242400D07859705976D8701179D8769079197115
:1024340019779871D1799877107A08370932D97158
:10244400D977187238760933B242DED11223254A7D
:102454000021A350244A2548A350B13AFF3A02F080
:10246400A9FC280008F0C2FB6DE7C04670B5012046
:102474000075012074B501205101002078B50120B8
:10248400503D0000E04B01204C3D00005C3D00004D
:10249400543D0000603D00006C3D0000643D0000C0
:1024A4007C3D0000703D0000743D0000B43D000020
:1024B400B83D0000C83D0000583D0000683D0000E4
:1024C400783D0000BC3D000039300000C43D0000F0
:1024D400D03D0000D83D0000E03D00004051012007
:1024E40084B20120983D0000B03D00004C760120EC
:1024F400094A830010B59C1840222468C000544047
:1025040080322240054CA44663441A60044B9C4626
:102514006044416010BDC04604C0014004D0014085
:1025240000400140074B8000C3181B68C90092009B
:102534000A435A400C231340034A94466044036000
:102544007047C04604C0014004D001408000002907
:1025540005D0064A40239446604403607047044B08
:1025640040219C4660440160F8E7C04604E0014015
:1025740004F001400123D022834011060A4A8B62F1
:102584008B618300991840220968C0005140803251
:102594000A4006498C4663441A60054B05229C4652
:1025A400604442607047C04604C0014004D001400A
:1025B400004001408023D8050168080F7047C046D9
:1025C4000FB400B5084883B005F0CEF8049B002B87
:1025D40007D005A91800019104F0B0FD034805F0E7
:1025E400C3F8012004F0C2FDFC4201200C43012089
:1025F40070B5EFF3108C72B60D4D2B68002BFCD028
:10260400BFF35F8FCC080619005D072401230C403B
:10261400A3401C000440034207D118433070BFF3A9
:102624005F8F2C608CF3108870BD1000FFF7C8FF1B
:102634002C0100D0F0B5D64646464F468846C0B574
:102644009A46EFF3108972B6724C2368002BFCD0C3
:10265400BFF35F8F524500D9CDE0554607260127C9
:10266400AC1A3440D108A4463400455C4318390000
:102674001440A140294200D1A9E00132924500D280
:10268400B6E06346002B55D0012B47D0022B3BD03C
:10269400032B2FD0042B23D0052B17D0062B0AD0C5
:1026A400340039001440A140D5084319455D29423E
:1026B40000D18CE00132340039001440A140D50827
:1026C4004319455D294200D181E0013234003900CB
:1026D4001440A140D5084319455D294277D0013201
:1026E400340039001440A140D5084319455D2942FE
:1026F4006DD00132340039001440A140D50843198B
:10270400455D294263D00132340039001440A140B0
:10271400D5084319455D294259D0013234003900A6
:102724001440A140D5084319455D29424FD00132D8
:1027340092455DD3340039001440A140D5084319B3
:10274400455D294243D03400390001321440A14090
:10275400D5084319455D9446294238D034003900E0
:1027640001321440A140D5084319455D29422ED0B9
:102774006346340039009A1C1440A140D50843191B
:10278400455D294223D062463400390003321440A7
:10279400A140D5084319455D294218D06346340049
:1027A40039001A1D1440A140D5084319455D29423A
:1027B4000DD062463400390005321440A140D508DA
:1027C4004319455D294202D063469A1DA6E71000CD
:1027D40029431970BFF35F8F00270E4E376089F3CA
:1027E400108800280FDBE0BCBA46B146A846F0BD0D
:1027F40001225042EEE7BFF35F8F0020206089F38F
:102804001088012148424246002AECD00898FFF77C
:10281400D7FEC0462C0100D0044A1078431CD9B21C
:10282400172900D9102111707047C046506E01203D
:1028340010B5054B82B00100009318221F230348F2
:10284400FFF7F8FE02B010BD1043012088BF01203D
:1028540000220F4B0F48BFF35F8F190004C1BFF371
:102864005F8F5A60BFF35F8F4A60BFF35F8FDA6098
:10287400BFF35F8F1A61BFF35F8F5A61BFF35F8F3E
:102884009A61BFF35F8FDA6120338342E3D17047EB
:10289400000100D0800100D0054B0648064A1360B1
:1028A400036043608360C360036143618361704775
:1028B4008080808004E400E000E400E01F231840EE
:1028C4001E3B8340002905D0C02104484A008350A0
:1028D40003607047802201498B50FAE700E100E071
:1028E40001228240034B196811404A1E9141C8B22B
:1028F4007047C04600E100E001238340014A1360B1
:102904007047C04600E200E0064B10309968800032
:102914004358054A0020991A2F238B424041C0B2E4
:102924007047C04600ED00E0546E012070B50D0004
:10293400EFF3108672B60F4A1368002BFCD0BFF376
:102944005F8F0D4910308A68840010590B4B9842F0
:1029540003D0854201D001F0D7F807498A681551A0
:10296400BFF35F8FBFF35F8F0024024D2C6086F3AB
:10297400108870BD240100D000ED00E0C1010010FA
:10298400F0B557464E46DE464546E0B585B00600EE
:1029940000911700EFF3108B72B6674A1368002B8F
:1029A400FCD0BFF35F8F0025644845578246002D55
:1029B40000DAA4E06A005319614C98008046A146ED
:1029C400C1444946019252468B795E48137081682E
:1029D4001036B60089590B1B2F2B32D95A4B99420A
:1029E40000D0A6E00199594A8A4641465544584BBD
:1029F400A800023125182252043B6418181B020552
:102A0400FF205449EF71544C009F530D0B436B80CE
:102A14004946AC80A871AF6001252943494A9368AF
:102A24009951BFF35F8FBFF35F8F0024424E346030
:102A34008BF3108805B0F0BCBB46B246A946A0464D
:102A4400F0BD01200A008243D3798A46BB4231D8C3
:102A5400150042492D1B6D416943090D45463B4B09
:102A640063533B4B02356519043B5B1B1D056B0D22
:102A7400384D2B43AA464D466B800425AC46E044B2
:102A8400131F44441C1B23055C0D4B46554699718A
:102A9400DF713349009F25439D809F601160494643
:102AA4000143BBE75900C81881006018C179B942D5
:102AB4002BD9020006201356002BF3DA0293131DC0
:102AC40051469A4627480390042043429C46E144D9
:102AD40050464B461B1A1805430D1E489571034377
:102AE4009380019A1E485519AB00E418039A029D7D
:102AF400E771009F2060A280A571A7608EE701F0B6
:102B040003F8002451460D5754E702939388514625
:102B140058050015131D9A460300404604305344DB
:102B24002018181A0305580DE0231B0218430390BC
:102B3400CAE700F0E9FF55E7240100D065C501208C
:102B4400546E012000ED00E0C101001000A1FFFF60
:102B5400846E012000E0FFFF01BDFFFFAAAA000070
:102B64000148804701BD0000F0B5DE4657464E4699
:102B74004546E0B50C0083B0EFF3108872B6624AA4
:102B84001368002BFCD0BFF35F8F06005F4910363B
:102B94008D68B700ED595E4901968D4242D0A54239
:102BA40053D05C4EAA1B2F2A3CD85B4B1A689B4619
:102BB400012391461A009C4682404B4613401F2233
:102BC40002406046994690405B4680228246985077
:102BD400BFF35F8FEFF305829346002A37D0019944
:102BE400914201D000F090FF01202A0082439068B6
:102BF400844208D176E04B00581881007318986815
:102C0400844236D01A00062151560029F3DA844250
:102C140054D04B46002B27D0C02251463E4B560081
:102C240099511960394CA368DD51BFF35F8FBFF32D
:102C34005F8F0027344D2F6088F3108803B0F0BCF9
:102C4400BB46B246A946A046F0BD0D00EAE72A00FD
:102C540063469A4390688442D5D1062010561300E7
:102C640000280ADA0D0031E0802054462A4E345000
:102C7400D8E706241857002821DB420011188C00DD
:102C8400A3463419A1689960E179D9710621615686
:102C94009971002924DBA48861050C155C44F11AA0
:102CA4000C1921051D4C490D21431D4C9980131805
:102CB40021789A00B618B1712070AAE7130058461B
:102CC400002814D1FF30907116489080144C164996
:102CD40022789A719B1B5B415943090D217098E737
:102CE4001049E2E70624105713000028C5DA0F49FB
:102CF4000F48CC1A083C62020E49560D6408304352
:102D04000C439880DC8084E7240100D000ED00E0CF
:102D1400C1010010546E012000E100E000E0FFFF5B
:102D240065C5012001BDFFFFAAAA00008E6E012027
:102D340000F0FFFF00F8FFFF10B583080400032034
:102D44002040FF24054AC0009446844081409B00F3
:102D540063441A68A2430A431A6010BD00E400E009
:102D640070B501240443EFF30581EFF3108C72B6C0
:102D7400214A1368002BFCD0BFF35F8F1F4B050063
:102D84001F4EED1A6D416E43360D1E4D72B2AE6884
:102D940089007658A6421CD006241D5795421CD0A3
:102DA40012215E56964222D01E241D57954220D0F1
:102DB4002A215E560324964210D0134C21782270A7
:102DC4008171BFF35F8F00220B4802608CF310887F
:102DD40070BDAE680D4B7350EFE7002465002919F0
:102DE400FF240B4D8E009B199C719D80E5E7012407
:102DF400F4E70224F2E7C046240100D0546E012017
:102E0400AAAA000000ED00E065C50120C101001080
:102E140001BDFFFF10B5074B82B0010000930022F3
:102E240005230548FFF706FC002801DB1F21081ACB
:102E340002B010BD2C43012069C50120024B9C4601
:102E440061448900016070474000003470B5114C42
:102E5400114DAC421CD2FF260BE0FFF7DDFC010054
:102E64002000FFF7EBFFA680BFF35F8F0834AC426E
:102E74000ED22368002BF0D1FFF7CEFC0100200016
:102E8400FFF7DCFF2671BFF35F8F0834AC42F0D349
:102E940070BDC0469C740120AC74012010B50400C0
:102EA400FFF7BAFC01002000FFF7C8FFFF232371DE
:102EB400BFF35F8F10BDC04610B504000120FFF7BB
:102EC400B7FC034BC01881002160BFF35F8F10BDB6
:102ED40040000034034B9C46614489000160BFF309
:102EE4005F8F7047400000340A4B1968EFF310807D
:102EF40072B60A68002AFCD0BFF35F8F1B68BFF369
:102F04005F8F0021196080F3108840BF00200021EA
:102F14007047C04640C50120F0B5DE4657464E46D0
:102F24004546E0B587B0EFF30583032201251A4037
:102F3400954091008B46B048B04EB14F445803922F
:102F4400029535600497029BAE4843630823E55E0F
:102F5400002D38DAA1880EB2002E00DBABE0A27996
:102F6400002A00D0ECE00823E55E002D21DB6A0096
:102F740066695119CF00F3199E68DD68731C01D18D
:102F84006B1C0ED09F4801005944826A0B69B71A22
:102F94009A1A974215D30123076A039883401F4264
:102FA4000FD0984800F078FB8D4202DCCBD18642EA
:102FB400C9D940BF07B0F0BCBB46B246A946A0463B
:102FC400F0BD0E61EDE767696A00B8465119CE009D
:102FD400B04443469E68DF6800F05EFB8F42B9DC74
:102FE40000D1FAE0002F00DADFE0404641690369CE
:102FF400049842468946834200D1D1E00821605EAC
:103004005288000449461043984700900191009962
:10301400019A0B001000134300D1C6E013000A000C
:10302400B61A9F41002806DB764800F035FB009E67
:10303400019F36184F4142469660D7600023D25E06
:10304400002A00DA86E75300991860699A46CB0093
:10305400C1188B68C9689946B94200DD7AE702D184
:10306400B34200D976E708239C46A44405956546F7
:103074002281A44653462C0006E053009918CD0043
:1030840041198D68C968A9469B18DD004319B942E6
:1030940006DC00D1ABE01C000023E25E002AECDA7F
:1030A400270040466446059E02803E80A1880EB2F9
:1030B400002E00DA53E72769EFF3108872B63868F8
:1030C4000028FCD0BFF35F8F0125A2886B422169E1
:1030D40017B2A380BFF35F8F00260E6088F31088B9
:1030E400002F00DA3BE720000830220081466669A1
:1030F4007C00E519EB00F318996848468C460824CF
:10310400115F9A46DD68002907DA0EE0AB4243D02E
:103114000023E15E2000002906DB4C006318DC007C
:103124003419E368AB42F1DD5346078000201F5E8B
:103134001980002FDCDA1400A279002A00D112E7EA
:103144000026A67127000823E15E08374B1C00D136
:103154002FE70D00A046666902E007004B1C19D05A
:103164000A0048004118CB00F0184488F15E23B2ED
:103174009146002BF1DA01235B42DC178360C460C3
:10318400AA4204D0454639802C8904802A814D46C0
:103194004B1CE5D14446E8E6A3686345B8D9C3E7C8
:1031A40048460969884700281BD14346198826697F
:1031B4002181EFF3108C72B63768002FFCD0BFF377
:1031C4005F8F42466088108065802569BFF35F8FFA
:1031D40000232B608CF31088BCE6864200D801E7FC
:1031E400B8E64A4610685168009001910FE7B1456E
:1031F40000D850E754E7C04624C401203C70054081
:10320400592900200040054070B52E4C2569002D39
:1032140004D00A212C48FFF711FE70BD2B4E032168
:10322400300000F02FFAE660FFF7F6FA284B03228D
:103234009C46D021604422700B06800020611868EF
:10324400012360700F20608002202249A16059424E
:103254006369A18019800231198647311D83585250
:1032640018315A5275325C399952183201319952D7
:1032740018320131995218320131995208351832F5
:103284009D52023118329952183201319952183232
:10329400013199521832013199521832013199523F
:1032A4001832013199520C4A0C49D46001300C4C4B
:1032B4003562FFF73BFB01210320FFF7FFFA25608E
:1032C400A7E7C0469C6E012040C501200040054090
:1032D40040000034FFFF100024C4012059290020BD
:1032E40038600540004870479C6E012070B50100AD
:1032F4000469EFF3108C72B620680028FCD0BFF389
:103304005F8F02200D5E6E0074194E69E000341860
:103314000869002D36DB26884E80BFF35F8F0026B8
:1033240006608CF31088E360638804980133059E7B
:10333400A2605A042061500C6661061C00281FD04C
:10334400B3B22804668018430A69EFF3108C72B68E
:103354001668002EFCD0BFF35F8F8B8823808D808E
:103364000D69BFF35F8F00242C608CF310880A78FA
:10337400CE68094901348C4694406644346070BD7B
:103384000126DDE7BFF35F8F002303608CF3108811
:1033940001225042F3E7C0463C20000070B582B0E1
:1033A4001D0008AB060018781400002807D100F0AF
:1033B4007BF922002B00121A8B41002B0ADB069AA0
:1033C400079900922B00220030000191FFF78EFF35
:1033D40002B070BD0020FBE710B543890A14934284
:1033E4001ADD5400A2184469D300E3180469EFF30A
:1033F400108C72B62268002AFCD0BFF35F8F5A8803
:10340400090494B2090C8A4208D00069BFF35F8FA3
:10341400002303608CF31088002010BD8022110269
:103424000C435C80012403698471BFF35F8F002225
:103434001A608CF31088044B01789C468C40C06859
:10344400604404600120E8E73C20000040787047B5
:10345400F0B506000F0006246442E517C646A41919
:103464007D4100B582B08D4214D811D000F01CF912
:1034740022002B00121A8B41002B15DC002B44D0A8
:103484003000390000F04EF902B080BCB846F0BDFF
:103494008442EBD90024002500F006F922002B0019
:1034A400121A8B41002BE9DD00F0FEF822002B00FC
:1034B400121A8B41002B0ADB0023154901932200C9
:1034C4002B0014480091FFF711FF0130D8D0A0461B
:1034D40029000024104A1148536A994204D8956A75
:1034E400A845CDD99942CBD10568EFF3108C72B6BB
:1034F4002B68002BFCD0BFF35F8F0568BFF35F8F91
:103504002C608CF3108820BFE6E7002AB8D0CBE704
:10351400292900209C6E01200040054040C501205F
:1035240070B504000D0000F0BFF8001969410029CE
:1035340002DA012002494042FFF78AFF70BDC0460B
:10354400FFFFFF7F70B5060000F0AEF8FA2204001A
:103554000D00002330000021920001F0B9FA001997
:103564006941002902DA012002494042FFF770FF55
:1035740070BDC046FFFFFF7FF0B557464E46DE469E
:103584004546E0B506000F0085B0EFF30583994684
:103594008B46002B12D0384C0020656A8D4206D32E
:1035A400A26A6F1A791E8F41B2424041384305B076
:1035B400F0BCBB46B246A946A046F0BD2F49CC6834
:1035C4000B782000A04603938A4600F065F80D00AE
:1035D4004146039A040004329000435830003900F5
:1035E400001BA9411A1B894510DC0DD020BF2249BC
:1035F40000204C6A5C45DAD38D6AE71B791E8F4143
:10360400B54240413843D2E78242EFD900F04CF84A
:1036140032003B00121A8B41002B1ADB0024184D98
:1036240032003B00504601940095FFF75FFE011EF7
:103634000FDD1148426A5A451BD3836AB34216D33D
:103644005046FFF7C9FE0C4900204C6A5C45AED3D6
:10365400D2E7094A0020536A5B45A8D30020916A47
:10366400B1424041DE1B721E964130439FE75A45EA
:10367400E6D120BFE4E7C046004005409C6E01202F
:103684002929002010B5024A0248FEF7B1FF10BDF7
:10369400484301208CBF01200300416A0A00986A54
:1036A400596A8A42FAD17047034B596A0A00986AE8
:1036B400596A9142FAD170470040054070B5040040
:1036C4000D00174A536A1900966A536A8B42FAD15D
:1036D4003000190024184D41AB4216D813D01048BD
:1036E4002B00426A954203D90D4E726A9A42FCD36A
:1036F4009A4207D10A4802E0456A9D4202D1816A92
:10370400A142F9D370BDA642E9D9054C636A1C00F5
:103714005A1CEFD001256B4201246442E517E3E70C
:1037240000400540064A536A9942FCD807D1044B2D
:1037340002E05A6A914202D19A6A9042F9D87047DB
:1037440000400540F0B5DE4657464646C0B51F006A
:10375400334B44009C468B4621188C00644416006D
:103764006568089A954200D26260011FCBB2984600
:10377400012B30D9C02380229D01110162191160EF
:10378400284985008A46495900291AD1216880238D
:103794007001E026484041465A010640A3181E60C5
:1037A400012930D980268022B101089E63181001B6
:1037B4001860666054466751E0BCBB46B246A846F2
:1037C400F0BD5046406900F073FB013043001A1805
:1037D400033AFDD2DAE75D46012DCBD1C0220325A1
:1037E4009301E1180D60023DA2681542FCD08021CE
:1037F4007301E02625684A016B400A4D1E40A31858
:10380400AA461E6085005E46032120687040014080
:1038140019600123B340A0680342FCD0C2E7C0464C
:103824000080004090BF0120F0B583B005000E0079
:1038340018000899170000F03BFB089A03001402D3
:1038440031003A0028000094FFF77CFF03B0F0BD7C
:1038540010B5802482B064000094FFF773FF02B0B7
:1038640010BDC046014B8000C058704790BF012076
:10387400F8B50400214817001E000D0000F018FBE5
:103884000100380000F014FB069B2268360419037B
:103894000E43002A20DB1A4FE3195A1E9341802756
:1038A40059420A0BB9018C461303164F164A634456
:1038B400164913603B601F000A689743FBD121231C
:1038C4002560A060124825182B6021680029FCDAC5
:1038D400E66008242C60F8BD3F2327683B40AB42D8
:1038E400D9D1A1680A05170D8742D4D1EE21E36826
:1038F400CA021340B342CED1EDE7C046001BB70065
:103904000040FDBF00F0004000E0004008C000405F
:103914000430000010B580241C4BE4051C60002812
:103924001AD001231A4C18431A4BDC611A4C444038
:103934001C62596298628020144BC1051960E02111
:10394400164C17482060CC041C60002A07D1802440
:10395400144923060B6010BD0E49C861EBE78024AF
:103964005301981A81008A18120163049A4209D2F9
:1039740010000D49074C086080200A4B6260C205A4
:103984001A60E8E709480200F3E7C04600B00540C2
:10399400D3C007B0008005402D3FF84F08200140F8
:1039A400FCFF010000A00540FCC30120FFFFFF0055
:1039B4008023024A98000843D06270470080054083
:1039C400002310B50100988A1A8B904710BDC04699
:1039D400162310B50100188802331A88904710BDC9
:1039E400F0B54F46D64646468946C0B5002960D054
:1039F400040000200A0080460330012514271826FD
:103A04000240084225D0012A16D0022A09D0216892
:103A140033883888984701C4431E984105400120E3
:103A240080462168388832889047012101C48C4639
:103A3400431E9841E04405402168338838889847FC
:103A440001C4431E9841054001208246D044C1452B
:103A540029D02168328838889047230001C39A46C8
:103A6400431E984161683288054038889047514622
:103A74006060431E984149683388054038889847F8
:103A840052465060431E9841E168338805403888A7
:103A94009847E060431E9841054004208446E04472
:103AA4001034C145D5D12800E0BCBA46B146A84679
:103AB400F0BD0125F7E7C046002370B51A8B04005A
:103AC4000D00988A0449904706000020002C01DB71
:103AD4000130A0402900B04755420000AA238D219F
:103AE400054A180110604B0004480549D360016081
:103AF4005368002BFCDA704700400240006002402B
:103B040000B0FA007047C04610B50148FEF758FDF2
:103B14006C430120F8B5254C254B9C4240D207212B
:103B24000F00013B181B8608721C00251740114228
:103B340020D0012F18D0022F13D0032F0ED0042F22
:103B440009D0052F04D0062F2BD108CC9847013576
:103B540001CC8047013504CC9047013502CC88471D
:103B6400013580CCB847013508CC98472800013589
:103B7400B04215D0270004CF9047616888477B681E
:103B84009847E06880472769B84762699047A16908
:103B94008847EF1DE369984720340835B742E9D1D7
:103BA400F8BD20CCA8470125CFE7C046AC7401205E
:103BB400E8740120F8B5254C254B9C4240D20721DE
:103BC4000F00013B181B8608721C00251740114288
:103BD40020D0012F18D0022F13D0032F0ED0042F82
:103BE40009D0052F04D0062F2BD108CC98470135D6
:103BF40001CC8047013504CC9047013502CC88477D
:103C0400013580CCB847013508CC984728000135E8
:103C1400B04215D0270004CF9047616888477B687D
:103C24009847E06880472769B84762699047A16967
:103C34008847EF1DE369984720340835B742E9D136
:103C4400F8BD20CCA8470125CFE7C046E074012089
:103C5400E8740120054A064B06481A60064A0749DB
:103C6400026010000B689843FBD17047BFCDFBFE88
:103C740000E0004000F00040FE7F3C0008C000402F
:103C8400044BD86C002803D180220349D3020B6073
:103C94007047C046000011504C201150044B054A97
:103CA40005481A600168CB018033FBD17047C046D8
:103CB40000F00040FFFFFF0108C000404022034B1A
:103CC4009A675A671A67DA667047C04600F001407F
:103CD40010B5FEF7BDFD10BD224B234970B55C1A2B
:103CE400A5102A00214E302D00D930223000920038
:103CF40001F066F8BC2C2FD833190724302120009A
:103D0400491B1B4A08400C4219D0012813D0022831
:103D14000FD003280BD0042807D0052803D0062889
:103D24001DD104C3013504C3013504C3013504C3E3
:103D3400013504C30135013504C3302D0CD01900FD
:103D4400083504C15A604A60DA601A615A619A619E
:103D5400DA612033302DF2D1064DAE6070BD04C35C
:103D64000135DEE7C0010010000100100000002052
:103D7400C101001000ED00E0002310B5294C82B011
:103D8400A367FFF7ABFE012227480260616C01299B
:103D9400FCD10323254C23482360836B012BFCD1E6
:103DA400013300930121224A22480433FFF760FDC6
:103DB400052301210093204A2048FFF759FD0022E2
:103DC400022104201E4BFFF743FD002201210520A0
:103DD4001C4BFFF73DFD0022002107201A4BFFF783
:103DE40037FD002200210820174BFFF731FD802208
:103DF400D1000091002200210920134BFFF714FD8C
:103E04000022104B00210620FFF722FD0420FFF7BB
:103E140029FD0E4900F04CF801000020FFF7C8FD11
:103E240002B010BD008000403CB0004030B0004003
:103E3400002F685900800240008C864700C0024071
:103E4400001BB70040597307006CDC0240420F00AE
:103E540001480421014B1847C06E01202134002081
:103E6400124A936F9B0815D29066D166002905D03B
:103E7400FFE7FFE7FFE7516F106F704704B580213C
:103E84000906C2175140002800D0C8430CF040F87E
:103E9400002104BDF0B5146E556E576F166FFFF711
:103EA400E3FF1466556657671667F0BD000000D03F
:103EB400114A936F9B0813D210665166002905D0EE
:103EC400FFE7FFE7FFE7516F106F704704B5002865
:103ED40001D00020C0430CF01BF8002104BDC046F3
:103EE400F0B5146E556E576F166FFFF7E5FF146645
:103EF400556657671667F0BD000000D094464A4ADD
:103F0400926F9208624601D228E0C046F0B5464E50
:103F1400346E756E776F366F00F020F89446424A1F
:103F240014665566576716676246F0BD94463E4A66
:103F3400926F9208624601D254E0C046F0B53A4E00
:103F4400346E756E776F366F00F04CF89446364ACF
:103F540014665566576716676246F0BD002B24DB6E
:103F640011D000293EDA00B5C943404200D10131E5
:103F740000F038F8C943404200D10131DB435242DA
:103F840000D1013300BD002AEBD1002801D1002962
:103F940005D00020C90FC90701D1C043410800B5AD
:103FA4000BF0B6FF0022002300BD00B500290ADB98
:103FB400DB43524200D1013300F014F8C9434042BC
:103FC40000D1013100BDC943404200D10131DB437E
:103FD400524200D1013300F005F8DB43524200D1D4
:103FE400013300BD002923D1002B18D1002A0CD0A5
:103FF400BC460D4F38667A6600210023FFE7FFE7D1
:10400400FFE77A6F386F67467047002801D007488A
:10401400010000B50BF07CFF0022002300BD02006C
:104024000B00002000217047000000D0FFFFFFFFBD
:10403400002B00D0BFE0130C28D1002AE7D080B4B5
:10404400114F39667A66FFE7FFE730B4040C7B6FE3
:10405400396F1B0423433B667A66FFE7FFE7FFE7FC
:10406400C04684B27B6F3D6F1B0423433B667A6674
:10407400FFE7FFE7C04600232C042D0C7A6F386F4E
:1040840000196941B0BC7047000000D0F0B59446F7
:104094000025140E01D112020835140F01D11201AA
:1040A4000435940F01D192000235D40F01D152008E
:1040B4000135D40B0134254F7C66254C3C660E0C2F
:1040C40093B2FFE7FFE7FFE73C6F6643360C7703E5
:1040D400BE467343DF0B5B04C01AB941130C734330
:1040E400DB18C91ACE086643360CB64493B2734340
:1040F4001F0F1B01C01AB941130C73431F0B1B057F
:10410400C01AB941860D8F023E436643360C092D11
:1041140024DB520A7243801A7703460A6643360C3C
:1041240016235B1BDE40DF40BF1964466643821BD7
:104134007046043506330100D940A840C01900D3A5
:104144000131A24206D20023F0BD0000000000D0DD
:10415400FFFFFFFF121B0130F3D3F1E709277F1B99
:10416400FE406446A2B27243801A00D20139220C86
:104174007243130C1204821A99410B0070460435E1
:1041840013370100F940A840801900D30131002BF6
:1041940002D1A2420AD2F0BD013000D30131121B78
:1041A400FAD2013BF8D1A24200D2F0BD013000D3D3
:1041B4000131121BF7E7F0B51C0C00D080E00CB401
:1041C40000251C0A04D11B02160E334312020835C3
:1041D4001C0B04D11B01160F3343120104359C0B35
:1041E40004D19B00960F334392000235DC0B02D1BD
:1041F40092185B4101351C00971864410134464F05
:104204007C66464C3C660E0CFFE7FFE7FFE7C046C2
:104214003C6F6643360C7703BE4697B27743C01BA8
:1042240000D20139C01B00D201399FB27743C91BA8
:10423400C91B170C77437E04FF0B801BB941CE08C2
:104244006643360C0C2D33DBB644120B1F053A4380
:104254001B0B97B27743C01B00D201399FB277433F
:10426400C91B170C77433E043F0C801BB941860DD4
:104274008F023E43664329277F1BFE400C3D774651
:10428400AF40BF1930BCA2B2ABB272437343801AC1
:104294009941220C7243130C1204801A99410200B2
:1042A4000B000137001BA941F9D2781E0021F0BD93
:1042B4000C277F1BFE4077467F0BAF40FF19E0E7DA
:1042C40000245D1C07D0144F7D663966FFE7FFE7C5
:1042D400FFE7FFE73C6F95B29EB265436643401B20
:1042E400B141150C1E0C6543664336042F0C3E4346
:1042F4002D04401BB141994204D202000B0020005E
:104304000021F0BD01D19042F7D3801A99410134C4
:104314009942F2D3F6E70000000000D0FFFFFFFF50
:1043240048404140484018B41B4B5B68FC4601932D
:1043340008BD04DFE33F002018B4174B1B68FC469C
:10434400019308BD00DFED3F00209446134A926FAD
:10435400920809D2624618B40F4BDB68FC460193FD
:1043640008BD0CDFA54200200C4AF0B5146E556E52
:10437400576F166F6246FFF7EEFF084A14665566DC
:1043840057671667F0BD18B4034B9B68FC4601934E
:1043940008BD08DF4941002070B40120000000D0AE
:1043A400FFB550404240504059404B40594000E016
:1043B400FFB5154F4C00640D03D0BC4204D10C036F
:1043C40014D80020090D09055C00640D03D0BC421B
:1043D40004D11C030AD800221B0D1B0501264B40E7
:1043E40009D44B4003D58B4200D18242FFBD994290
:1043F400FCD19042FFBD0B43DB1803431343F5D0BC
:10440400C9434918FFBD0000FF07000000B5FFF7CE
:10441400CFFF01D0002000BD012000BD00B5FFF793
:10442400C7FF804100BDC04600B5FFF7C1FF01D9F9
:10443400002000BD012000BD00B5FFF7B1FF01D988
:10444400002000BD012000BD00B5FFF7A9FF804199
:1044540000BD00000021002805D17047C117484065
:10446400401AFAD0C90713B5064B1B6898470CBC11
:10447400441CA2401005120B0349091B09051943EA
:10448400114310BD3CC401201F04000010B54C00B2
:10449400620D8023D218DB00D21A5B057E2A10DD60
:1044A4009E3A13DACC170903490819435242D14002
:1044B400640001341532202A05DAD04008436043F1
:1044C40010BD002010BD0846604310BDC80FC018C1
:1044D400013810BD18B4044B5B6AFC46019308BD57
:1044E40024DF55440020000070B40120132370B56C
:1044F4001C78012C19D014DD1748FFF769FA06005F
:104504001648FFF765FA164D80223100280000F0A6
:1045140057FC022C1CD01348FFF752FA124C2060AF
:1045240070BD124A0E4DAA64F5E70D4D0F4A2800DE
:104534002B008030190004C15A604A60DA601A61A5
:104544005A619A61DA6120338342F3D1AA64E2E7C3
:10455400064AAA64DFE7C0465344000053460000FD
:1045640070B401204C3300003CC40120B13F002052
:1045740007B5604601880A0A0230DF2AFAD1C9B2B7
:10458400820804D3028840880004104300E00068D5
:10459400014A5050039007BD70B401200FB403BC0E
:1045A4000CBCF0B50124E407634000E0F0B50C0D49
:1045B400CF0F661E3605891B640503D3C9434042E9
:1045C40000D30131640D03D0661CF60A07D0E41B46
:1045D40000207F00791C89078912803C24031D0D6B
:1045E400DF0F6E1E36059B1B6D0503D3DB43524262
:1045F40000D301336D0D03D06E1CF60A07D0ED1BFA
:1046040000227F007B1C9B079B12803D2D032F1BE8
:10461400661B58D4A446202E46DA20371400BC402A
:104624001D00BD40F24033412A4380185941CB0F4D
:1046340005D0C943C04300226442504151416246FF
:104644004D0D28D10D0D07D100281FD0241940414C
:104654004941013A0D0DF9D0640006D3013000D36D
:104664000131002C01D140084000013A0BD4941CC4
:10467400E40A04D112051144DB071944F0BDD9073B
:10468400204B194300E0D9070020F0BD0029DDD1FB
:10469400002CDBD1F0BD0132C6074008CD0728430A
:1046A4004908002EE1D0D9E73C2E29DA203E4037D4
:1046B4001400BC4000D00124F24014431A00BB4053
:1046C4001C43D317ACE7AC46202F08DA203604008D
:1046D400B4400D00B540F84039412843A5E73C2FCC
:1046E4000CDA203F40360400B44000D00124F840E6
:1046F40004430800B1400C43C117EAE71000190055
:10470400002494E70000F07FF0B50C0D661E36051A
:10471400891BE60A6405640D02D0651CED0A04D009
:10472400002001210905803C2403A4461C0D671EBA
:104734003F05DB1BE70A6405640D02D0651CED0A26
:1047440004D0002201231B05803C240377406444E9
:1047540097B484B296B27443070C7E43150C6F432E
:1047640080B26843361802D3012000043F18300495
:10477400350C00197D41844688B29AB250430C0C22
:1047840062431F0C7C438EB27E43921902D30126EE
:104794003604A4191604170C3618674101BC81B2FB
:1047A4009AB25143040C62431B0C5C4380B25843DD
:1047B400121802D30120000424181004130C40180A
:1047C40063412D185E410020474106BC88B293B274
:1047D40058430C0C6343120C544389B251435B1885
:1047E40002D301210904641819041A0C091862413E
:1047F4006D1856410020474118BCF902720D11434F
:10480400F0026A0D1043ED020A0D03D16D19404107
:104814004941013B124E9B1B7600B3420ED26D0000
:1048240007D30130002671416646354301D1400863
:1048340040001B05C918E4072144F0BD0BDA01331D
:1048440006D1013004D101314F0D01D04908F2E7FE
:10485400E1070020F0BD013631050020EBE7000040
:10486400FF030000F0B51C0D671E3F05DB1BE70AC4
:104874006405640D02D0661CF60A04D000220123EC
:104884001B05803C2403D0252D060026F6432E6606
:104894001E096E66CE0FF619B44649004F0D02D0BC
:1048A4007E1CF60A03D000200021403F3F033E1B3C
:1048B400B600B444013F7F05C91B49082E6F013679
:1048C40076089C02950D25437543ED137543AD138E
:1048D40001356D10F603761B0CB4CC02450D2C4348
:1048E400A2B2B3B25A43270C7B43350C6F43A4B234
:1048F4006C431B1902D3012424043F191C041D0C0E
:10490400A4187D4124196D41009A91B2ACB261435F
:10491400170C7C432B0C5F4392B25A43A41802D366
:1049240001221204BF182204230C52187B41019C5B
:104934006C431B19520ED9010A434401A01A81B2D7
:10494400B2B2514303145A43360C734387B27743CC
:10495400D617D21900277E4136049B191704160C6A
:104964007F185E417316ED18F301002680337541FC
:10497400A90F06D16400690AE8055B0A184309D245
:104984002FE00422944480337541A90AA8059B0AA8
:10499400184326D3404149412404009A019B0D0049
:1049A4005543641B4343E41A95B286B27543170C0E
:1049B4007E43030C5F4392B25A43B61802D30122DA
:1049C4001204BF183204330C52197B4152429C41E9
:1049D400002C02D40022013051414008CA07104380
:1049E400490802B06246D7079210084BD218084B08
:1049F4009A4203D212058918C919F0BD0020002A71
:104A040001DC3900F0BD01331905F5E7FD030000B1
:104A1400FE070000002200B5203200F004F8080070
:104A240000BD000000220B150AD410B5944600F016
:104A340031F81414013400DA0021CB17144C204748
:104A44000020002170476244343A0CD40C2A07DA5F
:104A540004009140904052422032D440214310BD82
:104A6400D843D94310BD203207D40C469440524257
:104A740020321141D040204310BD0800C917203214
:104A840003D452422032104110BD1800190010BD49
:104A9400874400200A0DCC0F531E1B05C91A52056A
:104AA40003D3C943404200D30131520D03D0531CF8
:104AB400DB0A07D0121B00206400611C89078912DD
:104AC400803A1203014BD21A70470000FF03000022
:104AD40051434343C9188C46110C83B24B4310B461
:104AE400040C614392B280B2504362431C041B0C19
:104AF400001910BC59411304120CC01851416144EF
:104B0400704700004840414048400E4B5B681847DE
:104B14000C4B1B6818470C4A936F9B0802D2094B35
:104B2400DB681847F0B5146E556E576F166FFFF7B4
:104B3400F6FF054A1466556657671667F0BD014BC4
:104B44009B68184740C40120000000D007B54840C6
:104B54004140484001E0C04607B54200120E03D070
:104B6400FF2A03D1420218D8C00DC0054A00120E14
:104B740003D0FF2A03D14A020FD8C90DC905012267
:104B8400414005D4414001D5814207BD884207BD5B
:104B94000143491801D0C043001807BD00B5FFF711
:104BA400DBFF01D0002000BD012000BDC10FC907FB
:104BB40000D54042002817D0F44603B40B4B1B68C1
:104BC400984706BC81409E384042803107D20B068C
:104BD40007D04900490AC005104308436047013023
:104BE400F8E7490A8902F5E7704700003CC4012050
:104BF40041000A0E80231B067E2A0BDD9E3A0BDA47
:104C0400C1174002400818435242D04049000131C4
:104C14004843704700207047C00FC01801387047E0
:104C2400C0420DD300B540004008002100F012F846
:104C3400002801D4404200BD8020000600BD0000D1
:104C4400034BDB69FC4618471CDF3147002000009A
:104C540040C40120014B5B6A1847000040C4012096
:104C6400132310B512481C78FEF7B2FE0100012C84
:104C74000AD003DD80220F4800F0A2F80E48FEF7A8
:104C84009FFE0E49086010BD0A4C5422200000F01B
:104C940097F80B486065A065E06520666066A066CD
:104CA400E06620676067A067E0672062E061E5E78F
:104CB4005346000040C401204C3300003CC4012092
:104CC4000547002007B5604601880A0A0230DF2A3A
:104CD400FAD1C9B2820804D3028840880004104380
:104CE40000E00068014A5050039007BD40C4012011
:104CF4000021C2158032803201D0024A10470020C0
:104D040070470000CD2A000070B504000A4E300040
:104D14000EF08EFD20000CF001F8050030000EF0BE
:104D24004DFE002D05D0054B2819984201D82800C6
:104D340070BD0348FDF744FC9C740120000004206E
:104D44007843012070B505000C000B4E30000EF0C6
:104D54006FFD280021000CF0EBFA050030000EF086
:104D64002DFE002D05D0054B2819984201D82800A6
:104D740070BD0348FDF724FC9C740120000004204E
:104D84007843012070B50400054D28000EF050FD55
:104D940020000BF0CDFF28000EF010FE70BDC046C1
:104DA4009C74012001480421014B1847D06E012056
:104DB40021340020014B1B6818470000D06E0120ED
:104DC400014B5B6818470000D06E012010B5FFF757
:104DD4009BFF10BD10B5FFF7D5FF10BD10B5FFF751
:104DE400D1FF10BD9A4200D2885470477047C04624
:104DF400F0B55746DE464E464546E0B583B005005D
:104E04001F000F980C9B0E0093469A46830700D010
:104E1400DEE10D9C0E9A944200D3E9E107210E9B3A
:104E24000D985C461A1A91460B00D944134011425E
:104E340037D0012B2DD0022B25D0032B1DD0042BD2
:104E440015D0052B0DD0062B05D03B005A4631005A
:104E540020200134A84722003B00310020200134E7
:104E6400A84722003B00310020200134A84722003B
:104E74003B00310020200134A84722003B003100D0
:104E840020200134A84722003B00310020200134B7
:104E9400A84722003B00013431002020A8474C459C
:104EA4003DD058460190621C90463B0022003100E0
:104EB4002020A847012141448B4642463B00310053
:104EC4002020A847E31C98465A463B003100202086
:104ED400A847201D834642463B0031002020A847B6
:104EE400621D90463B005A4631002020A847A11D70
:104EF40042468B463B0031002020A847E31D9846DC
:104F04005A463B0031002020A84708343B00424663
:104F140031002020A8474C45C5D1019883460D9AFD
:104F2400002A00D14BE1072003000D9CA144611E1F
:104F3400234020423FD0012B32D0022B28D0032B18
:104F44001ED0042B14D0052B0AD0062B00D046E12A
:104F540048465346021B013C185D31003B00A847FC
:104F64004A465146121B013C085D3B003100A847EC
:104F740048465346021B013C185D31003B00A847DC
:104F84004A465146121B013C085D3B003100A847CC
:104F940048465346021B013C185D31003B00A847BC
:104FA4004A465146121B013C085D3B003100C8468D
:104FB400A847002C52D04846B94637002E000500B9
:104FC400631E50469846C05C2A1B4B463900B047C6
:104FD400A31E424650469846C05C39004B46AA1A66
:104FE400B047E31E424650469846C05C39004B46E3
:104FF400AA1AB047231F424650469846C05C39005F
:105004004B46AA1AB047631F424650469846C05CB6
:1050140039004B46AA1AB047A31F42465046984649
:10502400C05C39004B46AA1AB047E31F42465046BB
:105034009846C05C39004B46AA1AB04753464246CC
:10504400083C185D39004B460195AA1AB047002C5C
:10505400B6D1019C3500A0463E004F460F98830709
:1050640000D4ADE041465A460E9B8C1AA34200D8A8
:10507400A6E00E99E0438C460722604402400120DA
:1050840083463B009246310042462020A8470E9BAF
:105094000134A146D8449C4200D391E051460029F2
:1050A40051D0012941D0022934D0032927D0042921
:1050B4001AD005290DD0062900D09FE042463B00B6
:1050C40031002020A84701240123A3469C46D8444C
:1050D400E144012142468A4620203B003100A84792
:1050E40001208346D044D9440124A44642463B00CF
:1050F40031002020E044A84701229246D1440121F6
:1051040042463B008B4620203100A84701239C46A1
:10511400D844E14401200124424682463B00310048
:105124002020A346A847D044D94401218C464246B6
:105134003B0031002020E044A847012292460E9B08
:10514400D14499453CD24446B846370022004346F0
:1051540039002020A847A01C8346661C3200434621
:1051640039002020A8475A46434639002020A84742
:10517400211D8A46E61C3200434639002020A847F8
:105184004346524639002020A847A21D9346661D77
:105194003200434639002020A847E61D43465A46BC
:1051A40039002020A8474346202032003900A84770
:1051B40008239C460E98E14408348145C6D3A04692
:1051C400404603B0F0BCBB46B246A946A046F0BD7B
:1051D4000D9991469046002900D0A4E63EE74A4640
:1051E400121B0C0051463B00085D3100A847AFE696
:1051F400D946D846002C00D095E6E1E70120844644
:1052040042463B0031002020E044A8470122924658
:10521400D14453E7F0B557464E464546DE46E0B521
:105224008BB09C4616AB05911A9F1978159C189E55
:10523400199D06920891BB0700D5EEE0002D00D021
:1052440030E1B44200D3E8E001223A40099230212F
:10525400884610390B1B9946149A4946013A07921D
:105264000722114013004A468A46134234D041466D
:10527400079A01341155A6425DD95346012B2BD010
:10528400022B23D0032B1BD0042B13D0052B0BD0C4
:10529400062B03D001341155A6424CD94346079A34
:1052A40001341355A64246D94146079B013419558A
:1052B400A64240D94146079A01341155A6423AD92B
:1052C4004346079901340B55A64234D94346079AFD
:1052D40001341355A6422ED9A9463D00069B0599D3
:1052E4009B46079B202C21D04246013427001A55A7
:1052F400A6421BD901341A55A64217D9BC1C1A550B
:10530400A64213D9FC1C1A55A6420FD93C1D1A55A6
:10531400A6420BD97C1D1A55A64207D9BC1D1A55A5
:10532400A64203D9FC1D1A55A642DBD8059159465D
:105334002F004D460691099B002B00D189E0A54220
:105344006BD930229046103A111B072293468946A6
:105354000A0059460A40924649465A46149B013B64
:105364000A422BD0424601341A55AC4255D051461C
:10537400012923D002291CD0032915D004290ED0D9
:10538400052907D0062900D0EBE041460134195520
:10539400AC4242D0424601341A55AC423DD041465B
:1053A40001341955AC4238D0424601341A55AC4246
:1053B40033D0414601341955AC422ED0069AB14639
:1053C40093463E000599202C00D181E042460134E9
:1053D40027001A55AC421BD001341A55AC4217D0E1
:1053E400BC1C1A55AC4213D0FC1C1A55AC420FD04D
:1053F4003C1D1A55AC420BD07C1D1A55AC4207D04B
:10540400BC1D1A55AC4203D0FC1D1A55AC42DAD16E
:105414000591594637004E460691FB062ED57B056D
:105424001FD4002C19D1179C102C00D189E0179E91
:10543400022E00D19DE030210124149A1170089BA2
:10544400002B3CD17B076BD52B23149E611C335559
:1054540017E0FB0612D57B0503D4A64252D0A54221
:1054640050D0179E102E3FD0179B022B45D0202CD6
:1054740006D02300013430261499CE54202CDED1DA
:1054840020210295149D01916346069A059903977C
:105494000095FFF7ADFC0BB0F0BCBB46B246A94685
:1054A400A046F0BD012301223B4009933A420BD0B0
:1054B40000293DD0013DB44200D2C8E63FE72D2388
:1054C400149A611C1355DCE7B44200D2BFE6A4E78A
:1054D4005F460697370005914E46FB06D0D57B05FF
:1054E400BBD5179B102BCBD1BB0633D5202CC7D0F3
:1054F4005821149A11550134B9E7202CC0D0230047
:10550400013409E0631E012C00D18CE7179910299E
:1055140031D0179A022AAED162261499CE54A6E746
:1055240021003E07ADD52026149A01311655A8E76F
:105534000C233B405A1E9341ED1AB44200D286E636
:10554400FDE6BB0613D478263023149C26706370C2
:10555400022474E7202C93D07826149B1E55013422
:1055640085E701341A55AC4200D00EE755E75826BA
:10557400EAE76036E8E7149AA61E90464644BA065F
:1055840002D55821317076E77822327073E7C0462D
:10559400F0B5DE464E4645465746E0B595B00A930B
:1055A4001EAB40CB804618788B46209C09920B900A
:1055B400002E08D110222399239F91430025239183
:1055C4007A0500D580E0239D6123AA0600D597E0E3
:1055D4000A2704A97D428C461F22AA46D8B26244F7
:1055E4002100824430009146FEF762FC0700CBB2F2
:1055F400092900D881E05344D8B24A4601255070A5
:10560400A64261D34646210038000896FEF750FCB6
:105614008046CBB209294DD8484630336E1CD9B2E6
:1056240035008155A7424DD3202E4BD02100404652
:10563400FEF73EFC0700CDB2092963D83035EBB242
:105644004A46751C5355A0453CD321003800FEF74B
:105654002FFC8046C8B2092957D95044C1B24B46E1
:10566400B51C5955A7422DD321004046FEF720FC16
:105674000700CDB209294BD95544E8B24A46F51C76
:105684005055A0451ED321003800FEF711FCCBB2C3
:10569400092940D95344D9B2351D4E467155A74204
:1056A40010D3070021003800FEF702FC8046CBB27D
:1056B4000929B1D9484653446E1CD9B235008155E5
:1056C400A742B1D2089FB8462398229A219B0394FB
:1056D4000B9C0CA9069005920493009140465946F0
:1056E4000A9B099A02940195FFF794FD15B0F0BC4A
:1056F400BB46B246A946A046F0BD3033D8B27CE7DB
:10570400412365E75544EBB29AE73030C1B2A6E7CE
:105714003035E8B2B2E73033D9B2BDE7F0B54E4622
:105724005746DE464546E0B597B0209E0B923200C0
:105734000C9322AB219F09900A9118782499259CF7
:1057440089460D903A4308D11023289D28989D43FB
:1057540028950025420500D586E0289961258A060A
:1057640000D59EE00A2106A88446EBB21F224D42D2
:10577400AB466244924630004A4639009B442300BB
:10578400FEF7D4FBD3B2092B00D887E05B44DAB22E
:10579400534601255A70BC4266D800D19EE00700EA
:1057A4000E004A46230038003100FEF7BFFBD2B298
:1057B400092A00D977E03032D2B253460135A846DF
:1057C4005A55B44250D84DD04646202E4CD04A4665
:1057D400230007000E00FEF7A9FBD5B2092D65D8FA
:1057E4003035EAB243465D1C53465A55B4423BD861
:1057F40068D04A46230007000E00FEF797FBD5B297
:10580400092D56D95D44EAB243469D1C53465A5568
:10581400B44229D859D04A46230007000E00FEF7A7
:1058240085FBD5B2092D47D95D44EAB24346DD1C58
:1058340053465A55B44217D84AD04A462300070063
:105844000E00FEF773FBD5B2092D38D95D44EAB2D8
:105854004546534604355A55B44205D83BD0070053
:105864000E009EE7B945AFD94A46279826990D9B65
:10587400289C01950EAD05900491039202930B9A16
:105884000C9B0A99099806940095FFF7C3FC17B07E
:10589400F0BCBB46B246A946A046F0BD3033DAB2EE
:1058A40076E741255EE75A44D2B286E75D44EAB220
:1058B40098E73035EAB2A7E73035EAB2B6E73035D3
:1058C400EAB2C5E7B94594D9CEE7B945A3D9CBE740
:1058D400B945B2D9C8E7B945C1D9C5E7B14500D87A
:1058E4005DE7C1E7F0B557464E464546DE4682467B
:1058F400802088468021E0B595B099461F9B0E9282
:10590400229A5C00C3001A400F92229A08011E9E3C
:1059140022996708024035003C000792194200D0E2
:10592400F9E03800304300D12AE106212091964B5A
:10593400200D9C466044FEF791FD944A944BFEF77B
:1059440022FD0890099120039249020B924B2800F2
:1059540011430022FEF7E7FC904A914BFEF713FD3A
:10596400904A914BFEF7E8FC02000B000898099955
:10597400FEF7E2FCFEF78AFD8346FEF76FFD8B4AD5
:105984008B4B04000D00FEF7FEFC0022894BFEF752
:10599400D3FCFEF77BFD884A884B29000890200041
:1059A400FEF7F1FC040008980D00FEF757FD844A49
:1059B400844BFEF7E8FC02000B00200029000C9247
:1059C4000D930A940B95FEF7AEFC02000B00040045
:1059D4000D00FEF7D8FC22002B001090119120003E
:1059E4002900FEF7A9FC109C119D12901391764A90
:1059F40020002900754BFEF7C6FC0022744BFEF70D
:105A04009BFC02000B0020002900FEF79EFC0022F4
:105A1400704BFEF791FC02000B0020002900FEF7FA
:105A240094FC0A9A0B9B0D0080210400C9050020F8
:105A3400FEF779FC0C9A0D9BFEF77EFC02000B002E
:105A440020002900FEF778FC02000B00129813993D
:105A5400FEF77BFC00224F4BFEF76EFC5E4B089C6E
:105A64009C46644423050022FEF78DFC32003B0073
:105A740004000D00FEF7E8FC002856D108940995AF
:105A84005D4663350224C62D60D92299079B0525FE
:105A94000C40002B00D1B2E1089A099B1A4311D0A3
:105AA400300039004D4A4E4BFEF7C6FC002800D1A9
:105AB4008AE10022300039004A4BFEF7AFFC00288F
:105AC40000D181E120990025594500DDD1E11E98DE
